:100000006F30B277130000001300000013000000EF
:100010001300000013000000130000001300000094
:100020001300000013000000130000001300000084
:08003000130000007300100032
:100038000000000000000000483C02004C3C0200A8
:1000480000000000C03E02000000000000000000A8
:10005800C23E0200C43E0200000000000000000092
:10006800C63E020000000000C83E0200000000007A
:10007800CA3E0200CC3E0200CE3E0200AA62020046
:10008800D23E0200D43E0200D63E0200D83E020014
:10009800DA3E0200DC3E0200DE3E0200E03E0200E4
:1000A800E23E020064360200E63E0200E83E02003C
:1000B800EA3E0200EC3E0200EE3E0200F03E020084
:1000C800F23E0200F43E0200F63E0200F83E020054
:1000D800FA3E0200FC3E0200FE3E0200003F020023
:1000E8001E590200BA640200063F0200083F0200DF
:1000F8000A3F02000C3F02000E3F0200103F0200C0
:10010800123F0200143F020062660200183F02001C
:100118001A3F02001C3F02001E3F0200203F02005F
:10012800223F0200243F0200263F0200283F02002F
:100138002A3F02002C3F02002E3F0200303F0200FF
:10014800323F0200343F0200363F0200383F0200CF
:100158003A3F02003C3F02003E3F0200403F02009F
:10016800423F0200443F0200463F0200483F02006F
:100178004A3F02004C3F02004E3F0200503F02003F
:10018800523F0200543F0200563F0200583F02000F
:100198005A3F02005C3F02005E3F0200603F0200DF
:1001A800623F0200643F0200663F0200683F0200AF
:1001B8006A3F02006C3F02006E3F0200703F02007F
:1001C800723F0200743F0200763F0200783F02004F
:1001D8000000000000000000000000000000000017
:1001E8000000000000000000000000000000000007
:0801F8000000000000000000FF
:100200003D432A876373C3029377F700BDEFADE5E3
:10021000937606FF3D8ABA960CC34CC30CC74CC7F5
:100220004107E36BD7FE11E28280B306C3408A0622
:100230009702000096966780A6002307B700A306E2
:10024000B7002306B700A305B7002305B700A30432
:10025000B7002304B700A303B7002303B700A3022A
:10026000B7002302B700A301B7002301B700A30022
:10027000B7002300B700828093F5F50F93968500B1
:10028000D58D93960501D58D61B79396270097027A
:10029000000096968682E78086FA9680C1171D8FA9
:1002A0003E96E374C3F8A5B73367B500FD530D8BD5
:1002B00079E7B7877F7F9387F7F710419441B3724F
:1002C000F6003363F600BE92B3E262006397720CED
:1002D0006318D6065041D441B372F6003363F6007A
:1002E000BE92B3E262006398720A631BD6041045A3
:1002F0009445B372F6003363F600BE92B3E2620037
:100300006391720A631ED6025045D445B372F6005B
:100310003363F600BE92B3E26200639A720863111F
:10032000D60210499449B372F6003363F600BE92C8
:10033000B3E26200639372085105D105E30FD6F66C
:100340001317060193970601631CF7001357060164
:1003500093D706013305F7409375F50F91E9828035
:100360004183C1833305F7409375F50F91E1828096
:100370001377F70F93F7F70F3305F74082800346A3
:10038000050083C60500050585056313D60065FADB
:100390003305D640828011059105E312D6FE014552
:1003A00082802105A105E31CD6FC01458280310530
:1003B000B105E316D6FC014582804105C105E31075
:1003C000D6FC01458280835745000355050085070B
:1003D0003385A740420541858280835765000355D8
:1003E000250085073385A74042054185828041115C
:1003F00022C42E841305C403814506C6EF80601312
:100400001305C4042244B240814541016F8060124B
:100410001C417D578843D8C71307C5036396E7007F
:100420009C475CD16FE0C14D1307C504E39CE7FE18
:100430009C471CD9C5BF4CC508416FE0614C1D717C
:1004400086CEA2CC0CC22A848145368536C6EF8082
:10045000400E0808EF80A009B707000093876743A4
:10046000B2463ECA930700103EDAB70700009387F2
:100470000741130660068145228536C83ECE02D666
:1004800002D8EF00F25F2ADC0808EF80C011F640C6
:10049000664425618280697123261112232481120A
:1004A000232291122A84232A5111232291112320DD
:1004B0002113232E3111232C4111232861112326CE
:1004C0007111232481112320A111EEDFEFA0013649
:1004D000AA8C2285EFA001412AC22C106685EFD09C
:1004E000F179294681456685EF009259AA842D4607
:1004F00081456685EF00D258835581020356A102DB
:10050000C204C18042053387954041812314E10232
:100510003307A6408356C1022315E1020357E102C7
:10052000A696C2062A974207C18241838504130416
:100530001500B6943A942316D10283C6CC05118CCB
:100540002317E10203A6CC0203A78C028D8CC20400
:1005500042048D8A8545C18441843303E640814A43
:10056000639CB600635A07006358C00083AA0C035B
:10057000B38AEA4093BA1A004946814566851AC48F
:10058000EF0012502A8B4D4681456685EF00524F91
:10059000AA8B414681456685EF00924E2A8C4546DE
:1005A00081456685EF00D24D8315A1020317C10274
:1005B0008316E10203568102420BC20B420C931DCB
:1005C0000501135B0B0193DB0B01135C0C0193DD45
:1005D0000D015A9633077741E295B386B64142063C
:1005E0004207C205C20641824183C181C182239A6A
:1005F000CC02239CEC02239BBC02239DDC02138AC9
:100600004C03224363C8840685068D8EC206C186CC
:100610000D476341D70209473347E40283D66C0193
:100620003697420741839306E7FF0907239BDC02C5
:10063000239DEC0283D98C0303D74C0303D9AC036D
:100640008509B389E94003D76C030509C209330959
:10065000E940420993D909411359094163D08416ED
:10066000370E000013886C039386AC03CA88130E00
:10067000AE3DA9AA0507118F420741878D46E3CBFE
:10068000E6FA094733C7E40283D64C01369742079E
:1006900041839306E7FF0907239ADC02239CEC02BF
:1006A00051BF03AD0C03330DCD40330D1D03334D4E
:1006B0006D0295A203A74C02118F3307170333472E
:1006C000670269AA2310B8002390E6002DAC338698
:1006D0006540050642064186635DE6002390C6003C
:1006E0000396060003170800635FE6202310C80086
:1006F000E1BF2390E6002310C800DDB783D6AC032A
:1007000003D66C03850641AC850BB38B6B41C20BE2
:1007100093DB0B410D47634177390947B3C4E402CA
:1007200003D74C01BA94C204C1801387E4FF890443
:10073000231CE102231E910285A65285029E0547D5
:100740006343A71C92452811EFD0D11E3707020042
:100750003011E9456685BACF6AD702D952DBEFA0DE
:10076000210930116685ED45EFA081088320C11273
:100770000324811283244112032901128329C11108
:10078000032A8111832A4111032B0111832BC110EC
:10079000032C8110832C4110032D0110FE5D556147
:1007A000828003D7060005070D8F2310E80003DDC4
:1007B00006003306CD402390C60001AA370E000084
:1007C00093868C03CE885288130E6E3C83A58C05CD
:1007D0007D5703A68C02E386E5EC03A70C05118F79
:1007E000330D170333476D0203AD4C05330DCD4078
:1007F000330D1D03131507014185334D6D02420D65
:10080000135D0D41330DAD40330DBD029305001056
:10081000334DBD023A9D03A58C04420D7D57135DF7
:100820000D41E309E5E803A70C04118F3307170313
:10083000B345670203A74C04118F330717031396C0
:10084000050141863347670242074187118F33070D
:10085000A702130600103347C7022E9742074187AD
:100860001306B0068145668546CE1ACC72CA36C8D4
:1008700042C63AC4EF00D220224713160D0141822E
:1008800093150701C1813248C246524E6243F24875
:10089000E3C984F01375F50F854E631ED501330D42
:1008A000C0403307B04042864207420D3688418738
:1008B000135D0D41B2860356080032972390E6007F
:1008C000035708003A9D2310A801370D0300130DAC
:1008D0004D53E3840AE603A68C02839506000317B2
:1008E00008003306C040B308160333C3680242034E
:1008F00013530301E3CD84DC1A9742074187E35386
:10090000B7DC2310E800930A01075685EF80C16E1B
:100910005686B70502006685EFD04108924528113A
:10092000EFD05101370702003011E9456685BACF93
:100930006AD702D956DD52DBEF90916B13060006A1
:1009400081456685EF00D21342054185228763D336
:10095000840026874207418705873A8D6353E50067
:100960002A8D420D135D0D4103160107CA8663D31C
:100970002901CE86C206C186858636876353D60096
:100980003287420741870607E3CA84D683D68C03A1
:1009900003D64C038506918EC206C186635BD702DF
:1009A0000347310712455286D6858349A10803497A
:1009B00021093AC4A30901062305010823090108F6
:1009C000EF80E16922472305310923092109A309A1
:1009D000E10603D74C0181466A865A972318E10243
:1009E00003D78C010C18880033077741231AE102E2
:1009F00003D76C0162972319E10203D7AC013307D7
:100A0000B741231BE102EF80810F81458800EF7021
:100A1000D1498315A1020317C1028316E1020356CF
:100A200081022E9CB30B7741329BB38DB641420BB2
:100A3000420CC20BC20D135B0B01135C0C0193DB68
:100A40000B0193DD0D01834921092303010A2309C9
:100A50000108231C6103231D8103231E7103231F2F
:100A6000B1032A89E3C284CA850DB38D8D41C20DBD
:100A700093DD0D410D476341B70309473344E40259
:100A800003D76C013A94420441801307E4FF090440
:100A9000231DE102231F8102031601078146D2852F
:100AA000A808EF80C1058145A808EF7011402A848D
:100AB00012453018D685EF80815A12455286D68568
:100AC00023093109A3090106230501082303010AAB
:100AD000EF80E158A808EF70514D8800EF70F14C9D
:100AE0002285EF70B1454A85EF7051459DB93705B4
:100AF000030001111305455326CA06CE22CC4AC86D
:100B00004EC652C4AE84EF90513385476310F50C46
:100B1000AA892685EF9011522A892685EF901151D6
:100B2000CD472A84631CF90AB7050200EFD0214D96
:100B30002A892685EF90915083570500AA84139740
:100B40000701418763532701CA872390F400494670
:100B500081452285EF00C272931905014D468145FA
:100B60002285EF00E271131A050141468145228575
:100B7000EF00027113190501454681452285EF00FA
:100B80002270135A0A41420593D909411359094168
:100B90004185D28763D34901CE87139707014187E7
:100BA0006353E900CA871397070141876353E50040
:100BB000AA87C207C18763DB070003970400B30756
:100BC000F04063D3E700BA872390F400F240624418
:100BD000D2444249B249224A056182806305390103
:100BE000A147631EF9009305440322856244F24045
:100BF000D2444249B249224A05616FD0314CD547AF
:100C0000E316F9FC6244F2404249B249224A268581
:100C1000D24405616FF03F8858516303B7045C55B7
:100C200063D3F500AE8714590C5563D3D500B68550
:100C300063D3F500BE856305B70201E64CD16FD0E2
:100C4000314C3445FD57639AF60038C16CC19306A8
:100C5000C503130645026FF08FFE7C413CC1FDB712
:100C60008280411106C622C493074006DCD583C7A3
:100C7000C5052E8423A20502F19B238EF50423A42F
:100C8000050223A8050223AA050223AC05024CDCB9
:100C9000FD57BCC523A0050423A205046CC4BCCD2C
:100CA000228523A8050423AA0504A145EFC0C14E4F
:100CB0002285C145EFC0414E22852244B240014603
:100CC0008145410191BF8347C50509478D8B6393DA
:100CD000E704585563D3E5002E871C5563D3E7001E
:100CE000BA874C5163D3B700BE851C596384B702E1
:100CF00001E60CD96FD0D140344D7D57639AE600A0
:100D00003CC96CC99306C504130605036FF02FF3A5
:100D10007C49FDB782801855411126C206C622C4FF
:100D2000AE846315B70058556301C704784D50D59C
:100D300004D50D8B89466303D70004D95C51B28575
:100D40002A846355F60050D00146F9355C5063D7CC
:100D5000970044D00146A68522857D3D2285224408
:100D6000B240924441016FD0B139B2402244924422
:100D7000410182803845FD576304F7006841828055
:100D8000485182808347C50509478D8B6384E700FE
:100D900008558280384DFD576304F700684982800A
:100DA00008598280684D0D898280411122C42E84A9
:100DB0002285C14506C6EFC0213E22852244B240AD
:100DC0009305004041016FC00135AA853705030036
:100DD00041111305055506C622C4EFC051162A84D9
:100DE000EFC0712B2285B240224441018280885598
:100DF000411106C622C42E84EF80A06E4854EF80B5
:100E0000406EB240232404022326040222444101FE
:100E100082800971232C8116232E1116232A911604
:100E20002328211723263117232441172322511762
:100E300023206117232E7115232C8115232A911548
:100E40002328A1152326B1152A84EF90311E83573C
:100E50000503638307422A8C2285EF90B1288357CC
:100E60002C022C182A8B93E747002311FC02628581
:100E7000EFD0C16003270C02B707FBFF83540C02BD
:100E8000F98F37070400D98F2320FC028801EF80F7
:100E9000A116A810EF60417B9001B705050062859F
:100EA000EFC0D12FB010B70505006285EFC0B16A61
:100EB00083572C0241468145ED9B2311FC022310F0
:100EC0009C026285EF00C23B931D050145468145AA
:100ED0006285EF00E23A93170501C18749468145D3
:100EE00062853EC8EF00C23993170501C1874D46A0
:100EF000814562853EC6EF00A23893170501C18780
:100F0000DA85A8193EC4EFD0E122B70705002326F1
:100F1000F112B707030093870757BEDF93F7040268
:100F20003ECA93F724003ECC93F74400930981080E
:100F3000130A81043ECE93F7840093DD0D412320F4
:100F400001102324311123264111014901443ED0CF
:100F500083570C03637DF43083274C02B70A0300E8
:100F6000931B29003387770108439385CA560509E7
:100F70003ED24209EFF04FB31359090192576DD198
:100F80008327CC02931A1400D69703D707009377D0
:100F9000870063920726935777401377070213FD64
:100FA0001700630E0724136D0D0883268C02131798
:100FB00034003697835507000316270003184700AF
:100FC00003156700835681030357A103B6953A962C
:100FD000C2962A972310B1042311C1042312D1040D
:100FE0002313E10463130D24130680038C014E8543
:100FF000EF80E05813060002AC105285EF802058B5
:101000000327CC028346510656970356070013F771
:10101000E60F9317360163D4070013E71600930C0D
:101020000104B019E9456285A302E106232291116A
:1010300023288112EF90C17B2A579317270063DA88
:1010400007080347B10AB24703160104137717FCD8
:101050001367E701A305E10A83164C01BE966318E6
:10106000D600137717FC13676701A305E10A03177E
:101070008C01A247831641041D8F639BE600034742
:10108000B10A9376E702137717FC558FA305E10A9F
:1010900003176C01831621046E97639BE6000347D8
:1010A000B10A9376A703137717FC558FA305E10ABE
:1010B0000317AC01C247831661041D8F639BE600D2
:1010C0000347B10A9376C703137717FC558FA3051F
:1010D000E10A035E610413730D02035F2104050E30
:1010E000420E135E0E01630003028327CC02D697E3
:1010F00083D7070093F7072099C793171F00B3877B
:10110000C7412311F1046686CE855A851AD27AD654
:1011100072D4EF70D17483274C0203578103831676
:10112000C105BE9B8357C10383AB0B0026468507D1
:10113000998F034851060317A105C207C187DE85B1
:101140004818EFA010148357410483550104031578
:10115000410385078D8FC207C1870946898FB3C7B1
:10116000C70203572104831661031253BE958357A8
:101170006104C205C1818507998FC207C187958F18
:10118000B3C7C7022310B104AA952312B104BA97BA
:10119000C207C183BE96C206C1822311F104231384
:1011A000D104630E03020327CC02BA9A03D70A00C4
:1011B000137707200DC7225E325F330EEE41420ED9
:1011C000135E0E41334ECE02420E135E0E01B38704
:1011D000C741B386C6412311F1042313D1046686A7
:1011E000D2855A850147DE86EF60814AB019ED4508
:1011F0006285EF90E15F05044204418091BB035793
:101200004C03E31487DAD24799C3136D0D02E2470A
:1012100099C3136D2D00F24799C3136D4D0082578A
:10122000E38507D8136D8D0049B303572C024E8513
:101230002310AC03136747002311EC02EF70D15B5E
:101240005285EF6061404E86B70505006285EFC0AC
:10125000E1745286B70505006285EFC0D12F0357B0
:101260002C0223109C026D9B2311EC0251BB83576F
:101270002C02ED9B2311FC028320C117032481174C
:1012800083244117032901178329C116032A8116D4
:10129000832A4116032B0116832BC115032C8115BC
:1012A000832C4115032D0115832DC11419618280F2
:1012B00041115546814506C6EFF0917CB24042058A
:1012C000418541018280C167FD176383F510835713
:1012D0000503797122D406D626D24AD04ECE2A846E
:1012E00063F1F50E1C5513973500AE84BA9703973A
:1012F00007002C002310E100039727002311E100D1
:1013000003974700839767002312E1002313F1003E
:10131000EFD0C116814551462285EFF071769319C1
:101320000501228571372A892285EF00726EEFA0B0
:10133000F02CA9473345F50293D909418355810023
:1013400042054185AA8663533501CE868357010045
:10135000C206C182AE97958F2310F1000356A100FB
:101360004A876353A9002A87035541008357210008
:101370004207AA95AE962312D1008356610041839D
:10138000B2973696998F3297C20742078356440325
:10139000C18341832311F1002313E100639F960071
:1013A0004C548604AE9483D6040093F6062091C66E
:1013B0008607FD17998F2311F1008A852285EFD0CA
:1013C000E14FB250225492540259F2494561828051
:1013D00082801D71CAC82E890C0886CEA2CCA6CAEE
:1013E000CEC6AA84D2C45EDE62DC66DA6AD86ED665
:1013F000D6C2DAC0EFD081082685EFD02117AA8C9B
:101400002685EFD0E117494681452A8D2685EFF0E4
:101410003167931B05014D4681452685EFF05166E6
:1014200093190501414681452685EFF07165131C2E
:101430000501454681452685EFF09164931D050120
:10144000514681452685EFF0B1632A8426858D3586
:10145000137714004204894741843344F40205079A
:10146000B54693DB0B4193D90941135C0C4193DDE5
:101470000D41354AB347F502058922974207418756
:10148000AA978507C207C18763C3E6003A8A420A62
:101490003547135A0A41BE8A6353F700B54AC20A58
:1014A000B54793DA0A414E8B63D33701354B420B74
:1014B000B547135B0B41E28963D38701B549C20984
:1014C000B54793D909416E8C63D3B701354C420CB3
:1014D000135C0C41B38C6C41330D8D4101445E882B
:1014E000B54DF91C791D83D704036372F40A98542F
:1014F0009317340003550101BA970397070003932C
:101500002700839847008395670093170701C183DD
:1015100063C5EB0A428763D37D0135473307E54056
:10152000BA97C20703562101C187231CF100931605
:101530000301C182B307464163C86900CE8763D304
:101540003D01B547B307F640BE96C206C186139764
:101550000801231DD100418363C498075A952A9737
:101560004207418793970501231EE100C18363CBA6
:10157000A5056296B297C207C1870146CA852808A9
:1015800042C6231FF100EF70003D324815CD83D7CE
:1015900004036394870041647D142285F640664409
:1015A000D6444649B649264A964A064BF25B625CE7
:1015B000D25C425DB25D25618280330755418DB7B3
:1015C000569571BF52967DB705044204418021BFF4
:1015D0005971A2D4A6D2CAD0CECED6CA86D6D2CC83
:1015E000DAC8DEC6E2C4E6C2EAC06EDE85472A84F7
:1015F000AE8A2319F50201498144B7090300931704
:101600002900D697884301C58307050085EB8357DA
:10161000040363889706085409C5EF70906C23246F
:101620000402485409C5EF70D06B232604021395B9
:101630003400EF80202008D40DE501A09385C95621
:10164000EFE09FC609C98504C204C18005094209AB
:10165000135909016DB78357240385072319F40231
:10166000F5B713951400EF80E01C48D411E101A0F8
:101670001C5491E3814493951400EF80C02F2318EC
:1016800094021306B0068145232254032285EFF00D
:10169000313F9377F50F4946814522853ECAEFF0E9
:1016A000313E2A8B414681452285EFF0713D5146FE
:1016B00081452A8D2285EFF0B13CAA842285CD3E5A
:1016C000AA8B2285EFC0116DAA8D2285EFC0117102
:1016D00003592403420DC20D7D1933099902420BAF
:1016E000135D0D018149014C814C93DD0D01135BAC
:1016F0000B013309254193170901C1873EC8939710
:101700000401C1833EC693970B01C1833ECC035AAB
:101710002403636B4C092285EFC0B1242285265433
:10172000B65096540659F649664AD64A464BB64BC9
:10173000264C964C064DF25D65616FD0611C545489
:101740003387940106073697034707001D8B11E383
:101750000547330FE900850413190F01C20413591B
:101760000901C180139724005697184311CFB7077A
:1017700003009385C7563A853ACEEFE0FFB209C51C
:1017800072470307070045FFC247050CB3833701C3
:1017900099EC910A6688B2479E89C28CEA97139D9C
:1017A0000701135D0D01A5B78144014965BFB3D998
:1017B00049031307FDFF33DA4303EA99C20993D9BA
:1017C00009413A9A1387F4FF33077703420A135A01
:1017D0000A413387ED4042074187BA8E63530700C1
:1017E000814EC20E93DE0E4166888148814F585467
:1017F000931618003697034607001D8A11E2054626
:101800003387FE03B29FD2471386F8FFB386FE03E9
:1018100033572703B3D62603469742074183B29630
:10182000C2060546C182638DC70493150701C185B1
:10183000C2061C54C186DA95DA9613153800C20622
:10184000C20552873E95C1864E86C1851ED646D4B6
:1018500076D27ED042CEEF6050727248E247A258F4
:10186000050833079841BE98C20893D80801825FE3
:10187000925EB253E36D97F685048A04A69A21BF5F
:10188000B386DD4093950601C185B386ED404DB723
:10189000FD57239AF50283C765032E8523A205020F
:1018A000F99B23A4050223A6050223A80502238B86
:1018B000F502B70500209385050019BBAA853705F9
:1018C000030041111305055706C622C4EFB0316766
:1018D0002A84EFB0517C2285B240224441018280AB
:1018E00091C1FDB1828041110356050322C42A84AF
:1018F0004855060606C6EF7090484C502285224493
:10190000B2404101F1BF8356050363F4D504585535
:10191000939715004111BA9783D607001347F6FF36
:1019200022C426C206C63284758F2390E700137442
:101930000420AA84EFF03F9901C82244B2402685D2
:10194000924441016FC0F101B240224492444101EE
:1019500082808280411122C426C24AC006C6AA845F
:101960002E89014483D704036368F400B240224403
:101970009244024941018280A28505044A86268557
:10198000420451374180F9BF8357050363F2F506DE
:1019900083476503411122C426C24AC006C6858B0F
:1019A0002A84B2842E8999C79377060881C7930544
:1019B00000084D375C5413171900CA85BA9703D72E
:1019C00007002285458F2390E70093F40420EFF071
:1019D0009F8F89C822852244B24092440249410126
:1019E0006FC02178B2402244924402494101828072
:1019F0008280411122C426C24AC006C6AA842E890A
:101A0000014483D704036368F400B2402244924443
:101A1000024941018280A28505044A862685420446
:101A2000A5374180F9BF035545038280C167FD1783
:101A30006384F508011156C2835A05034AC806CECD
:101A400022CC26CA4EC652C45AC02A89014563E137
:101A5000BA02AE8981440144370B03006394340316
:101A6000014563879A00832749020A043E9408408F
:101A7000F2406244D2444249B249224A924A024B5D
:101A800005618280130A1400420A83274902135A0F
:101A90000A0113172A00BA9788438504C2049305E4
:101AA000CB56C180EFE05F8011E50904131A0401F1
:101AB000135A0A0152845DB701458280835705039A
:101AC00063FCF5005C558605BE9503D50500718D58
:101AD000118D133515008280014582804111130656
:101AE000000822C426C24AC006C62A84AE84F9373A
:101AF0002A89930500082285B13D630C09002285DF
:101B00002244B2400249A6859244130600084101CE
:101B1000A5BDB2402244924402494101828037056A
:101B200003007971130505574AD006D622D426D270
:101B30004ECE52CC56CA2E89EF8031308547631C79
:101B4000F504AA894A85EF80F14EAA844A85EF8080
:101B5000F14DCD472A846397F4064A85EF80114EF4
:101B600083572403AA8995C7032A44028144B70AEC
:101B7000030093972400D29703A90700630B090081
:101B80009385CA564A85EFE02FF201C58307090005
:101B900081EF23900900B250225492540259F24925
:101BA000624AD24A456182805C5413971400BA9706
:101BB00083D7070093F707206399074E8504C20473
:101BC000C18045BF9307A0026395F4004C50093BC8
:101BD000D9B793079002E38BF4FE639F34094A85DB
:101BE000EF80D145835544032A892285EFF0AFED7C
:101BF000EF90A12FEF90C12F7599631095042C00E1
:101C00004A85EF90413D2C002285EFF08FFCC167A3
:101C1000FD17AA856303F5025C5413171500BA97E4
:101C200003D70700935757400D87D98F858B91E7CE
:101C3000231AA4022285EFF00FE983564403C167FB
:101C4000FD17E38AF6F45C5413971600BA9703D78E
:101C500007001356974093578740D18F135637404C
:101C6000D18F1587D98F858B9DF736C67000F145CA
:101C70002285EF80F13705B789476391F40A4A85D9
:101C8000EF80D13B2A89EF904126AA84EF9041262C
:101C900079157599E30105F026852C00EF90A133A5
:101CA0002C002285EFF0EFF283554403AA84E384ED
:101CB000A5EEC167FD176385F5002285EFF0AFE063
:101CC000231A94024A85EF90A12EC167FD17E38481
:101CD000F4EC5C5413991400CA9703D70700935788
:101CE00037401587D98F858BE39707EAA68522852C
:101CF000EFF06FDD58543A9983570900A187858B1F
:101D0000E39B07E88357440386073E978357070002
:101D1000A587858BE39107E826C689BFA147639312
:101D2000F40A03574503C167FD176304F7089317C7
:101D3000170058553E978357070093D66740858A0A
:101D40009DCA93D65740858A9DE693D67740858A6B
:101D5000BDC683466503858ABDE293F7F7F7C207E0
:101D6000C1832310F70083476403858B89C783559C
:101D700044032285A533835644035C54139716000D
:101D8000BA9783D7070013D7874013D69740518F50
:101D9000058B05C313D757408D87D98F858B91EB62
:101DA0007000F145228536C6EF8091248547E31403
:101DB000F5DE835544032285EFF0EFD0E9BB93E7CE
:101DC000070845B79947639AF40203574503C1676B
:101DD000FD17E302F7DC5C5593161700B69783D71F
:101DE000070093D6474013D65740D18E8D87D58FA5
:101DF000858BE39207DA3AC695BD8D476398F40068
:101E000083554503EFF02FCCFD5741A8B9476398A0
:101E1000F42A4A85EF8091222A89EF90610DAA84E5
:101E2000631809000145EFA0600AEF90610CAA84D5
:101E30002285EFB0C143EF80D17803574403C167D7
:101E4000FD17E31AF7D489476387F4009147E394B9
:101E5000F4D4E30205D4834764035054858BA9E38B
:101E60001397170032978356070013D7364095868D
:101E7000558F058B1DC38507E5B785071397170099
:101E80003297035707009356574093553740CD8EEE
:101E9000858AE5F6137707086DD3231AF402E5B9AE
:101EA0008147E9BF83554403C167FD17E38EF5F40D
:101EB000228589BF5147639DE70403574403C167E7
:101EC000FD176314F700231A04028357440399E3B0
:101ED00083570403FD17C2075054C183231AF40229
:101EE000835744031397170032978356070013D77D
:101EF00036409586558F058BE30D07EA99C7FD1788
:101F0000C207C183231AF402E1BF83570403C5BF8C
:101F100049476390E70C2285EFF08FB9835744035C
:101F200041677D17639FE7025054231A04028357C9
:101F300044031397170032978356070013D7564070
:101F40008D86558F058BE30607E68507C207035785
:101F50000403C183231AF402E3EBE7FC231A04020F
:101F6000F9B7185413963700035304033A960357EE
:101F7000460083560600939817000507158F420701
:101F800041870587369742074187B286E3F367E2C8
:101F9000039826008315260063D705038395060062
:101FA0006343B70283954600AA9563CEE5004C547F
:101FB000C69503D805009355584013583840B3E5EB
:101FC00005018589E5C18507C207C183A106890886
:101FD00075BF4547E39FE7DC2285EFF06FAD835780
:101FE000440341677D17639FE7025054231A04029C
:101FF000835744031397170032978356070013D76C
:1020000056408D86558F058BE30507DA8507C20795
:1020100003570403C183231AF402E3EBE7FC231AFA
:102020000402F9B7145493953700C207B69503D745
:10203000450003D60500C1870507118F4207418778
:10204000058732974207139637004187B296139659
:102050000701E34006D6039826000396250063593E
:10206000C80203960600098E6344C7020396460021
:102070006340E60250541398170042960358060036
:10208000135638401358584033660601058A19CA5A
:10209000FD17E1166DBFD547E39FF4AE4A85EFE02B
:1020A0005FD7D5BC231AF40229B32285EFC00153B0
:1020B000835724033345F5022390A900E9BC938795
:1020C00014FF0547E370F7DEB547E396F4FC83554C
:1020D00044032285EFF02F9F4A85EF802176830706
:1020E00005004D47E398E7DC83574403C166FD16BE
:1020F00001476386D700850713970701418303567D
:102100000403231AE4026364C700231A04024C5434
:1021100083574403139717002E978356070013D74E
:1021200056408D86558F058BE30507C88507C20786
:10213000C183231AF402E3EDC7FC231A0402C9BFCA
:10214000834765038589F99BCD8F230BF502814574
:102150006FF0DF984111B707030006C622C49387CA
:10216000075DDCD183C785022E84228593E71700A3
:102170002384F5028945EFA0117A2285A145EFA0BD
:10218000917922852244B2409305004041016FA01D
:10219000917883C78502858B91EFC851411122C484
:1021A00006C62E84EF70E033B2402322040222449C
:1021B0004101828082806D7137050300D6DB930A6E
:1021C000455B1305455B2322911023261110232420
:1021D000811023202111CEDFD2DDDAD9DED7E2D57E
:1021E000E6D3EAD1EECFAE84EF8021458547631276
:1021F000F50E2685EF8001642A892685EF8001632C
:102200009307C0022A846319F90E2685EF800163C3
:102210002A8A1306700581452285EFF061062A8916
:10222000831485001306900581452285EFF0410552
:1022300013170501418713068005814522853AC29F
:10224000EFF0010412474C50931605018967FD1702
:10225000C18601484A862801EF90B0025546814563
:102260002285EFF0E101AA8A4946B70502002285DE
:10227000EFF001012A894D46B70502002285EFF0F3
:1022800021002A8B4146B70502002285EFE0517FED
:10229000AA894546B70502002285EFE0717E035703
:1022A00081085A99939704013A998356A108C183EA
:1022B00056994E953E99AA973E8713960601C207F6
:1022C00023102A01C187418663D3C70036872311B3
:1022D000EA008320C11003248110832441100329C4
:1022E0000110FE596E5ADE5A4E5BBE5B2E5C9E5C40
:1022F0000E5DFE4D51618280CD476316F902268541
:10230000EF80C153AA84B70502002285EFB0314F98
:1023100083D704001397070141876353A700AA8757
:102320002390F4007DB7D547E315F9FA2685EF80B1
:10233000E14F2A842685EF80E15A2A891306700529
:1023400081452285EFE0D173031A85002A8C13069C
:10235000200381452285EFE0B172AA844146814580
:102360002285C204EFE0D171C18026959319050141
:10237000494681452285EFE0B170AA9455468145D2
:102380002285EFE0F16FAA8C4946B705020022854D
:10239000EFE0116F2A8B4D46B70502002285EFE072
:1023A000316E2AC64146B70502002285EFE0516D25
:1023B0002AC44546B70502002285EFE0716C2AC2A7
:1023C0002946B70502002285EFE0916BAA8D2D46C4
:1023D000B70502002285EFE0B16A930B01052A8D53
:1023E0005E85EF6071415E862285B7050200EFB021
:1023F000E15AB24603574401C204C1801248A247C1
:10240000269713160A01B304DB0041824207FD142C
:10241000B29441833385070183566401BA949307CC
:10242000F5FFC20413950D0193D90901C1804181C3
:10243000098FB2972695CE962312A102139B07010E
:1024400013150D01C206135B0B01C1824181B387D5
:10245000A6405A95AA96CA8528012313D1022310B3
:10246000E1022311F102EFB0F14CB707020056C7A9
:102470003001930A0102E94522853EDF5ECD02C9A3
:1024800056CBEF80E1365686DE854A85EF60313DDA
:102490003001ED452285EF80A13513069005814579
:1024A0002285EFE0F15D13170501418713068005D2
:1024B000814522853AC2EFE0B15C12474C50931639
:1024C000050189670148FD17C18662866808EF909B
:1024D000405B0818EF504117101822858145EFB076
:1024E00091078357C101E694C204C180231491026D
:1024F000BE9493071B00C207C187B38747410945B4
:10250000B3C7A702035564010357E10154503010CB
:102510000C1823169102CE97AA97C207C1832315E0
:10252000F1024A85BA9701472317F102EF5041168D
:102530004DB3DC5123A207028280485101C5814579
:102540006FF0B15201458280411122C42E84228550
:102550009305004006C6EFA0314422859145EFA0C7
:10256000B1432285B7050200EFA0F13A22858545E7
:10257000EFA0713A22852244B24041016F202055DC
:10258000C851411122C406C62E8409C5EFF0B166B8
:10259000232204028347C403C18B91E70858EF60EC
:1025A000507423280402B240224441018280011168
:1025B0004AC852C406CE22CC26CA4EC62A892E8AC2
:1025C000AD3F3DC1130670058145AA84835965015D
:1025D000EFE0114B03148500130690058145268515
:1025E000EFE0114A93170501C1870947B3C7E70216
:1025F000229542054185D297B3873741C207C187EB
:1026000033C5A70283574903420541816366F5003C
:102610001385F7FF42054181F2406244D2444249AA
:10262000B249224A056182800145FDB7C167FD17A5
:10263000630BF60E5D71A6C244514EDE86C683D989
:102640000402A2C4CAC052DC56DA638AD90083D716
:1026500024022390D40293E747002391F4022A8AAC
:10266000080832842E89EF40317E1008B705040037
:102670002685EFB0416E13069005B7050400268548
:10268000EFE011402311A1025285453D2A8A59C12C
:10269000C247031721028325890083968700B387E9
:1026A000E6003306F402894703546501B347F70295
:1026B0007D173697B307F640A297C207C18323114F
:1026C000F100BA972313F10083D7440120000A8652
:1026D0002310F10083D7840122852312F100EF60DB
:1026E000C01415C1832A8900528523248900EF2054
:1026F000A05FAA86014713064A010C084A85EF40ED
:1027000031792324590183D7240223903403ED9B8C
:102710002391F402B640264496440649F259625A7F
:10272000D25A616182808280C167FD176304F60E10
:102730005971A6D24451DAC886D603DB0402A2D46A
:10274000CAD0CECED2CCD6CADEC6630ADB0083D7CF
:1027500024022390D40293E747002391F402AA892C
:102760003284AE8A13067005B70504002685EFE0B3
:102770003131B705040013069005AA8B2685EFE0DA
:102780003130839B8B002A89131A05014E857533DE
:10279000135A0A4133864B013306C4020944835756
:1027A00065017D195E99280033448A02330486400E
:1027B0003E9493170401C1832311F100CA97231398
:1027C000F10083A7490203D7470183D7870123106C
:1027D000E1002312F100EF60310230002685B705D9
:1027E0000400EFB0A11B0A862C005685EF6031076C
:1027F00083D7240223906403ED9B2391F402B65007
:10280000265496540659F649664AD64A464BB64B64
:10281000656182808280411126C206C622C44AC0F8
:10282000AA84213B39C92A89EFB091552A8426858B
:10283000EFB0D15A635385041306700581454A856C
:10284000EFE01124031485001306900581454A85A5
:10285000EFE0112383D5640322950146B305B50249
:10286000C850C205C185EFD011602244C850B240A3
:102870009244024941016FC0A108B24022449244EF
:10288000024941018280AA853705030041111305E1
:10289000C55D06C622C4EFA0916A2A84EFA0B17F6D
:1028A0002285B24022444101828091E101A0411180
:1028B00006C622C426C24AC0231A05022E8729460C
:1028C00083574503830607008507C207C18395EE3A
:1028D0002A84231AF502231B0502231C05022E85D8
:1028E000AE84EFC0222513091500085809C9834793
:1028F000C403C18B89E7EF60D03E232804024A85D8
:10290000EF60507308D801E901A06394C600231A50
:10291000F502050775B7A685EFC0A2208347C4035B
:102920002285BD9B230EF402EFB0917D485001C972
:102930002244B2409244024941016FB0717CB240DE
:102940002244924402494101828091E101A0411157
:1029500006C622C426C2231A05022E87294683579B
:102960004503830607008507C207C183B9E2231A1E
:10297000F5028347C503231B0502231C0502C18BF7
:10298000AE842A8489E7085919C1EF6090358347DE
:10299000C403228504D893E70701230EF402EFB0A5
:1029A0003176485009CD2244B240924441016FB083
:1029B00031756394C600231AF50205074DB7B2407E
:1029C00022449244410182804111B707030006C6A8
:1029D00022C426C29387875FDCD5C1779CDD83C77D
:1029E000C5032E84228593F707FC93E78703238E84
:1029F000F50223A2050223A4050223A8050223AAA7
:102A0000050293050040EFA00171B705030093850F
:102A1000C55F22851D3F2285EFF0C17EAA8537055F
:102A2000030013058561EFA09151AA84EFA0B16660
:102A300044D0C0D0B24022449244410182808357A6
:102A400065036380B7028357450363E6F50093850A
:102A5000F7FFC205C181231BB502231CB5026FB06D
:102A6000316A82804851828003554503828001117A
:102A70004EC68329050306CE22CC26CA4AC86381E6
:102A80000906AA844E852E843289EFC0A20A8147A6
:102A90000147A9456304A706B386E900038606003B
:102AA00083D684036397F604814729469305F9FF8B
:102AB0009458BA96BE9683860600638FC600630458
:102AC000090063FBB7003308F40085072300D80032
:102AD000B306F700E3EEA6FCA2972380070019A037
:102AE00023800500F2406244D2444249B249056164
:102AF00082806313B6008507050769BF8147E9BF78
:102B0000011122CC85452A8406CE26CA4EC64AC863
:102B100052C4EFA0017144502285EFF0A16EAA8546
:102B20002685EFF031194850FD55EFF071294850D6
:102B30008545EFA061660146FD452285EF70514B4A
:102B40002285EFF09F9F0C58AA89EF20600848501B
:102B500089659385157DEFB0C1784E85EFC0712DE5
:102B60004850EFB0B120AA842285EFB031206341F4
:102B700095028347C403BD8BF11793F7B70F89EB19
:102B800044502285EFB0911EAA852685EFB061756D
:102B90004E85EFB0F11EAA844850130620038145EC
:102BA000EFE0016E2A89485041468145EFE0416DD2
:102BB0002A8A485045468145EFE0816C06095295C6
:102BC0002A998347C403CA940329C403C204BD8B52
:102BD0002147C1841379F9006393E710031AA40114
:102BE000269AEF90C01BEF90A01E635A4503031A6C
:102BF0006401EF90C01AEF90A01D8317A4011D8DF2
:102C00006353450D0355640111497D154205418506
:102C1000AA8763D3A400A68793940701C184485070
:102C2000A685EFB0A16F2285EFF0FFBEA147485007
:102C30006317F90E014781463546A285EFC0B123DF
:102C40004850EFC0111F8347C4030547BD8BFD17D4
:102C500093F7F70F6360F7044850EFB09109AA8427
:102C60004850EFB0510E2A89EF906013EF90401654
:102C70006342A902032A4402EF906012EF904015CC
:102C80009385F4FFB3852541AA95C205C185528578
:102C9000EFB0A15F105881454E85EFF0413B894769
:102CA0006304F50A8D478146014685456313F500A7
:102CB0008D456244F240D2444249224A4E85B2498F
:102CC00005616FB02179EF90800DEF906010835710
:102CD000A40193C7F7FF3E954205418515BF1147F3
:102CE000E39FE7F2031A6401B3079A40E3D907F2BE
:102CF000EF90E00AEF90C00D8317A4011D8D635D76
:102D0000AA00EF90C009EF90A00C8357A4012149BD
:102D10001D8D42054185EDBD03156401D5BD91476B
:102D20006316F90001478146294601BF85476316AE
:102D3000F90001478146414609B78947E312F9F096
:102D4000014781464D46D5BD81460146A54595B70B
:102D50004111854506C622C42A84EFA0814D485002
:102D6000FD57231DF4028545EFA0E13A2285224458
:102D7000B24001469305000241016F7071277971DD
:102D80002E8522D44AD006D626D24ECE52CC2E89BB
:102D9000EF70512AE1472A84631AF5084A85EF70DB
:102DA000F128A147AA89631CF40AEF800114EF807F
:102DB000412759E503A44902EF802113AA84EF803B
:102DC000211391476311F502835764032285231C65
:102DD000F402EFA0C1492A89EF70B17E09C581458F
:102DE0004A85EF70516C2685EF808110854763110D
:102DF000F5062C002685EF80011E8315A100228593
:102E0000EFF0EFFA231BA402231CA40222858937CA
:102E10001C5481E72285EFB0B12E83576403300044
:102E2000F14522853EC4EF70B11C19A83705030097
:102E3000CA8513058561EF7051008547E300F5F6FB
:102E4000B250225492540259F249624A456182803A
:102E50002685EF80E1098D47E31AF5FA59BF8547CA
:102E600044516310F404EF8041082A8971D9EF803E
:102E70002108631185022C004A85EF80C115831556
:102E8000A1002685EFF0AFF2239DA4024E85EFB09E
:102E900031277DB74A85EF80A1058D47E312F5FA0A
:102EA000D9BFA5476316F400FD57239DF402C5B7AB
:102EB000E147E317F4F84A85EF70511740514A850E
:102EC000EF70512250500C4593098100AA8451069D
:102ED0004E85EF50901535C98347C40303AA84007B
:102EE00023A4340193F707020356A403BDC78357F5
:102EF0006403639EC700930610023E86A685228562
:102F0000EFF09F82930610020356A4030DA89306C8
:102F10000002A6852285EFF03F810356A4039306A5
:102F20000002A6852285EFF06FF003566403854604
:102F3000A6852285EFF04FFF035664038546A685DC
:102F40002285EFF0AFEE23A4440137050300CA85C4
:102F500013058561EF70616EE5B593060002A685E5
:102F60002285EFF06FFC9306000279BF48514111B2
:102F7000854506C6EFA0212DB240134515001375F7
:102F8000F50F41018280011122CC4AC806CE26CA23
:102F90002A84EF7091752A89EF80A10825E52285A2
:102FA000F13721CD22856D338357640303578403A2
:102FB0006301F702231CF4027000F14522853EC62E
:102FC000EF7011038547AA846312F5022285EFB0E2
:102FD00031134A85EF70D171914785446318F5002C
:102FE0002285EFA0C1288145EF70F14BF240624489
:102FF00026854249D244056182802285EFF05FB088
:103000008544EDB7835784032285231BF402EFB078
:10301000310FFDB73705030035711305C55D4AC98A
:1030200006CF22CD26CB4EC752C556C35AC1DEDECF
:10303000E2DCE6DAEAD8EED62E89EF700160854749
:103040006312F506AA894A85EF70C17EAA844A8573
:10305000EF70C17DB9472A846394F402EFA0212167
:10306000EF703156AA84EF705168EF707168914724
:10307000631AF502638D040C2285EFF07FA81DA072
:10308000938714FF63E5F900EFF09FCC21A8A147D7
:103090006394F400CD3D39A09307A0026393F4023A
:1030A000EFB0E164FA406A44DA444A49BA492A4A2C
:1030B0009A4A0A4BF65B665CD65C465DB65D0D616E
:1030C000828093079002E38DF4FC9307C002639122
:1030D000F4024A85EF708176AA8413067005814553
:1030E0002285EFE0E119831785002391F4005DBF8D
:1030F000B547639DF4064A85EF7041748307050068
:103100001387E7FE1377F70F63E2E9022285B93DE3
:1031100025D583576403035744038507E3D4E7F8B1
:10312000231BF4022285EFF00FEFADBF51476385FB
:10313000E7004547639AE70022850D3D15DD83577B
:103140006403ADD3FD17E9BF6D476398E70083576C
:1031500084032285231BF40205BF2947E394E7F487
:10316000EF703170E300A4F422852DB7D547E39BBF
:10317000F4F24A85EF70816B2A844A85EF7081767C
:103180001306200381452A8B2285EFE0610FAA8474
:10319000494681452285C204EFE0810EC180269513
:1031A000931905014D4681452285EFE0610D269575
:1031B00041468145931A05012285EFE0610CAA94EE
:1031C0000810EF4061481010B70502002285EFA0FB
:1031D0009138032A8402C20493D9090193DA0A01BF
:1031E000C180631D0A0013050008EF60C06B2A8AC6
:1031F000AA85130600082285EFF07F871306B00624
:10320000814522850349C403EFE081071375F50F5B
:103210008547854B6307F500937BF900FD1B93BB46
:103220001B00485449C5EF4061172AC632478947F9
:1032300048546313F7100348D1030317210383167F
:10324000410302568967AA85FD178800EF80700345
:10325000831C0104031C210413970C014183638E1A
:103260000B0E83574401CE97C207C183231CF10084
:10327000FD17BA97231EF100B247931D0C01094DAB
:103280000359640193DD0D016395A70F2699420947
:10329000135909015454231D21017D196E990147C9
:1032A00030080C105A85231F2101EF40613E880031
:1032B000EF408139900081452285EFA0D129034854
:1032C000D105031721058316410506468967FD17B9
:1032D0004808D285EF80E07A035564018357610185
:1032E000AA94C204C180231D9100BE945C54231F84
:1032F00091006391070E228583544401EFB00127AA
:103300008317410109471D8D3345E5022695420586
:103310004181231CA1003E95231EA1000147D286B6
:1033200030088C005A85EF40A1361C54E39C07D628
:103330005285EF60A01CBDB38C00EF708100854703
:10334000631AF500064C935CAC0093FCFC7F135CA5
:103350005C0119B77D5CFD5C01B783578401B387BD
:103360005741C207C1833387E740231CE100FD17A3
:1033700011B72285EFB0C120330585413345A50340
:10338000FD1D2A99420913590901231D21018800B5
:103390006E99231F2101EF30317890002285B70507
:1033A0000200EFA03129B3CCAC033D46B7050200C3
:1033B0002285334CAC032312910523138105EFD0F2
:1033C000316C54542310A10430088C005A85EF301E
:1033D000F17FF1BD8357410163800B0203558401E6
:1033E000B30A5541C20A93DA0A01B389FA40231C91
:1033F0003101231E51011DB703554401AA99C20989
:1034000093D90901231C3101BE99231E310139B71B
:1034100083C78503411106C693F707F822C493E7D3
:103420003700238CF50223A205022E852E84EFB0EF
:10343000E1132316A4022285EFB08114B70700011F
:103440005CD8835784032317A4022324040293F730
:10345000F7C793E70708228523280402231CF402F8
:103460008945EF90715322852244B240C1654101E4
:103470006F90714A83D7850305478D8BFD17C2076F
:10348000C1836365F702C851411122C406C62E8468
:10349000EF602005835784032322040293E737005B
:1034A000231CF402B24022444101828082804111F7
:1034B0003D46814506C6EFD0B15CB240420541852C
:1034C0004101828041113946814506C6EFD0515BEA
:1034D000B2404205418541018280011106CE22CCD5
:1034E00026CA2A84C53703576403B304A70222857A
:1034F0007D3F835604030316E4028315C402AA9693
:10350000C20693072403280013D78440420741834F
:10351000C186EF50B17A0355C1008357E10083564D
:1035200081000357A1000505F24062448507158D0F
:10353000998F4205C2074181D2445D8D0561828029
:10354000AA853705030041111305456306C622C449
:10355000EFA0E11E2A84EFA001342285B24022446C
:1035600041018280397106DE22DC4AD82A842E8904
:1035700026DA4ED652D4EFB0A1384A85EF30116228
:103580008D47631EF5028357840305478D8BFD1716
:10359000C207C1836365F7004850EF5090748357AA
:1035A00084032322040293E73700231CF402F25021
:1035B0006254D2544259B259225A21618280AA845B
:1035C0002C084A85EF60F157BDEC8357840305470B
:1035D0008D8BFD17C207C1836365F7004850EF501C
:1035E0005070232224038357840362478D88F19B04
:1035F000135657019356A700C58F7D8B93F6F67F20
:103600000A0793F737F8D98F2316D4022317C40279
:1036100085860586231CF4022319D402231AC402CA
:103620002285EFB0C10C8357040399E70357640365
:10363000930700106305F7002285EFA091322285E1
:10364000EFB0012CADB79387F4FF93F7F70F054761
:103650006362F70483294402638E2903835784033A
:103660008D8BFD17C207C1836373F70081494A85BB
:10367000EFB0424C0505EF60E01B2A8A11E101A082
:10368000CA85EFB0024A23224403638509004E85B0
:10369000EF5030658947E398F4F4130670058145CF
:1036A0002285EFD0F13DAA89130680058145228548
:1036B000EFD0113D93160501C18613069005814593
:1036C000228536C6EFD0D13BB24613170501896774
:1036D000FD17418701484E86CA856808EF80603A29
:1036E0000357C101E247B706E0FF9386F63F137721
:1036F000F77FF58F2A075D8F8357E1019396570176
:103700009317B700AD83D58F3ECCF1BD75712E8573
:1037100026C3DAD806C722C54AC1CEDED2DCD6DA45
:10372000DED6E2D4E6D2EAD0EECE2E8BEF70811058
:10373000D547AA846314F5025A85EF70210F9307C9
:10374000A0022A84639BF4048357850309478D8B69
:103750006392E7044C51EFF0FFE031A8E147E30D3D
:10376000F5FC37050300DA8513054563EF60F16C5E
:103770008547E303F5FCBA402A449A440A49F659BE
:10378000665AD65A465BB65B265C965C065DF64D7D
:1037900049618280EFA0F11CF9BFCD476391F40C21
:1037A0005A85EF70A109AA892285EFF0BFD103598C
:1037B00064033309A9022285EFF07FCF8356040307
:1037C000AA96C206C1861359894081EA9317090156
:1037D000C18713070010E380E7FA228536C2EFA005
:1037E000F158AA842285EFA0B15992461317090116
:1037F00041832A862A8A93072403A6850818EF5056
:10380000F14B83960900031701033387E6406353A6
:10381000D7003687420741872390E90083172103A9
:10382000B387F64063D3E700BA87C207C187239006
:10383000F90083154103B695858D63D3F500BE85E8
:10384000C205C1852390B900031561033695330580
:1038500045416353B5002E852390A90029BFC54774
:10386000639AF40E5A85EF60717DAA892285EFF084
:103870007FC52A892285835A6403EFF05FC3031B47
:10388000C4022A8A228583540403EFA0314E631EAA
:10389000AB0A031BE4022285EFA0914E6317AB0A2B
:1038A00033095903B3864401C20693070010C18649
:1038B000135989401317090141876314F70295E2F0
:1038C0000317C4020946831724033347C702639AC8
:1038D000E7008317E40203174403B3C7C702630674
:1038E000F706228536C4EFA071482AC22285EFA0D0
:1038F0003149A246924513170901930724034183D6
:103900002A860818EF50913B03574401835701035F
:1039100083562103BA972318F10283576401BE9698
:103920002319D102835641033697231AE102035724
:103930006103BA97231BF10283A509000146081809
:10394000EF5060012382A9003DB50C182285EFB02D
:10395000C149DDB79307C0026390F4045A85EF6054
:10396000F16D8357840313070010AA8493F707307F
:10397000639BE7002285EFF05FB62390A4004181AE
:103980002391A400CDBB8357C4022310F5008357B5
:10399000E4022311F500C5B3B9149947E3ED97DCB0
:1039A00093079004B3D497008588E38604DC5A8596
:1039B000EF605168AA8B5A85EF605167C9472A8426
:1039C0006394FB0E5A85EF60716718418947AA849A
:1039D000E303F7DA8357840313F7270001C785470A
:1039E0009CC051BB93F7C70741476385E700114768
:1039F000E397E7FE1306600481452285EFD0510866
:103A00001375F50F9307F00FE31BF5FC2285EFF01C
:103A10001FAA835704033E9579F12285EFF09FAAF0
:103A2000035964033309A9025A85EF603161930792
:103A30000010AA8913598940631AF90001469305B9
:103A40004401EF50C00CE31805D251BF2285EFA00E
:103A5000F1312AC22285EFA0B13292451317090134
:103A60002A8693072403418381460818EF501125C5
:103A70000357440183570103835621030146BA9734
:103A80002318F102835764010C184E85BE96231942
:103A9000D102835641033697231AE102035761038B
:103AA000BA97231BF10271BFD5476385FB00E1473D
:103AB000E393FBCC2285EFF0FFA0835A6403B38A23
:103AC000AA022285EFF0BF9E835C0403AA9C228594
:103AD000EFA0D129AA8D2285EFA0912A13062003F9
:103AE0008145AA842285EFD0A179AA8949468145DA
:103AF0002285C209EFD0C17893D909014E95131AD6
:103B000005014D4681452285EFD0817741468145AB
:103B10002A8C2285EFD0C1764E95131905014546B2
:103B200081452285EFD0C17583572403135A0A01BA
:103B300013590901D2972318F100835744032AC26D
:103B400013070010CA972319F1008357840393DAEF
:103B50008A4093F707306393E7222C082285EFA071
:103B6000F1118356810103174401031D6401231AD7
:103B7000D4008356A101831D840137050300231B54
:103B8000D4008356C1018314A401DA85231CD40018
:103B90008356E101130545633AC4231DD400EF6049
:103BA000D12985462247E318D5BC231AE400231BFC
:103BB000A401231CB401231D9400D547E39DFBBA47
:103BC0008317E402E38907BA8317C402E38507BABF
:103BD000E3830ABA5A85EF60F150831784012A8B78
:103BE00022853EC4831D4401031D64018314A40186
:103BF000EFF0BF8E03568403131805012ACA93758C
:103C000006301307001013580841935B0541A24783
:103C1000639BE51A0317C40289453307074105076B
:103C20003347B7023307E04042074183BA9D3E97CE
:103C30008317E402C20D4207B38777418507B3C7F4
:103C4000B70293DD0D414187B307F040C207C1833E
:103C5000B386A701139D0601A697135D0D419394AA
:103C6000070193772600C1846397071E92470818BF
:103C70003AC642C44E9CBE99EF30016A1018814585
:103C80002285EFA0211B83572403420C135C0C01F7
:103C9000231AF1028357440323195103832A8B000B
:103CA000231BF1021C5CC20993D909019D8313F601
:103CB00017008347410423189103930C0102F99BD9
:103CC000D18F2302F104835781016686D685D2976E
:103CD0002310F1028357A1016685CA972311F102CF
:103CE0008357C101B38787412312F1028357E10152
:103CF000B38737412313F102EF403033E30D05A6BC
:103D00006A998357A402420913590901CA97C20745
:103D1000C183139607014186420923249B01231581
:103D2000C102135909418356E402224832476355C0
:103D3000C900958F2315F1028357A1026E9A420A9A
:103D4000B3843441135A0A01FD17330C8741BE96E0
:103D5000C20413190A01420C931908012317D10256
:103D6000C18413590941135C0C4193D9090183178C
:103D7000A10263CA970623245B01F5BA13970A01CF
:103D800093960C011C084183C1862686EE8528087F
:103D9000EF50C17203574401835781018356A1013B
:103DA000BA97231CF10083576401BE96231DD100EE
:103DB0008356C1013697231EE1000357E101BA97EC
:103DC000231FF10079BB835781010357C10183543D
:103DD000E1011D8F8357A1016E9742079D8CEA94E4
:103DE0004187C204BDBD835684028357C402D29664
:103DF000C206C1821397060141872314E10263556D
:103E0000E9009D8E2314D102035781027D17BA97D2
:103E10002316F1028317810263C087030357A102AF
:103E200093970B01C1833E972315E1020357E102EB
:103E3000BA972317F10225BF545030100C185A8539
:103E4000EF30C15883578102CE972314F102835774
:103E5000C102CE9775BF0D8A89479304440163124E
:103E6000F6020818EF30417E101822858145EF9048
:103E7000916E5450014726860C185A85EF30510137
:103E8000DDB88146268681455A85EF302154E5B05C
:103E900083478504411122C406C693F707042A8488
:103EA00089C7085519C1EF50C06383478404232490
:103EB0000402B24093F7F7FB2304F40422444101C7
:103EC000828041112E8522C406C62E84EFF05FFC4D
:103ED00083478404A18B81E74850EF508060232200
:103EE0000402B2402244410182802313B5046FA032
:103EF00031212312B5046FA0B12083478504054703
:103F00009D8B6392E7064C55FD57638EF504411176
:103F100022C483A781802A84485106C6F51582975A
:103F2000834784041306840293F7070491C3105453
:103F3000814754503307F5003697B306F600838661
:103F40000600830507002300D70091E92285EFF0E2
:103F50003FF4FD575CD4B240224441018280850782
:103F600093F7F70FF9B7828041110546814506C6E0
:103F7000EFD00131B24042054185410182804111BB
:103F800013068005814506C6EFD0812FB240420559
:103F9000418541018280411113069005814506C685
:103FA000EFD0012EB240420541854101828041118E
:103FB00013067005814506C6EFD0812CB240410141
:103FC00082805971A2D4DAC82E84039B0500494629
:103FD000814586D6A6D2CAD0CECE2A89D6CADEC61A
:103FE000E2C4EAC06EDED2CCE6C2EFD06129035D46
:103FF000240041462AC281454A85EFD061282C1011
:10400000330DAD404A85EFA0E1610354C1028357EF
:1040100081024A8505041D8C832B4902EFF03FF98C
:10402000AA8A4A85EFF03FF7AA894A85EFF03FF563
:1040300083478904420D420493D4470093F7070253
:10404000135D0D4141842A8C839D8A00858899C324
:1040500093E424004A85EFF03FF189679387177D49
:104060006319F5008357290293F7074099E393E416
:104070004400032649024A858145EFD0517D2A8AB2
:1040800001480149B3883D01B3892B0183870900A9
:1040900099E3CA8C91A00147A687A2866286D6853D
:1040A0004E8546C642C4EF7020572248B30C250106
:1040B000B2483307B801634BA70903A7418166D211
:1040C0004C105E85029729476308E50033879B0102
:1040D0000307070011E3850C0947631FEA062687DB
:1040E000E2865686B3852C414E85EF7090100354BE
:1040F000C10203578102334545030504198C42046C
:10410000418433444403098C42044184A30D0100DB
:1041100002CE63970C0C83A7C180F2454E8582972F
:1041200083A7C180AA84CA855E858297B65026542B
:10413000269506599654F649664AD64A464BB64BDA
:10414000264C964C064DF25D656182804698420889
:104150001358084166890DBF0D470144E318EAFA78
:104160002687E2865686B3852C414E85EF7070080F
:104170000354C102035781020504198C69B7629484
:1041800022951314050141843A8A72474A97E374D1
:1041900097F9740850100C104E85EF70500191C8BB
:1041A00072471305B1014E9783050700EF70E04198
:1041B00069FD125682555685EF70B06A13170501D6
:1041C00041872297634CEB007247B306E90063878F
:1041D000DC00B386490183860600D5F252CE25BFA6
:1041E0009247014A8588330BFB40420B135B0B411E
:1041F00069BF5C51638D0752757106C722C526C31E
:104200004AC1CEDED6DAFD57D2DCDAD8DED6E2D429
:10421000E6D22C081CD92A84EFA0C1400359C10161
:1042200083578101228505093309F940EFF03FD812
:10423000AA842285EFF03FD6AA892285EFF03FD4E9
:104240008347840442091359094113D8470093F75F
:104250000702AA8A1378180099C3136828002285D8
:1042600042C6EFF07FD089679387177D3248631984
:10427000F5008357240293F7074099E31368480039
:104280004C50CA874E87D68626860808EF70607F16
:104290002285EFA0C145034A84048947137A7A0036
:1042A000631AFA181306700681452285EFC0517D06
:1042B0001319050113590901631D09002285EFD067
:1042C0003175EF70B0330D49334925034209135955
:1042D00009010810EF40A021FD57231EF1049307A8
:1042E000C012BEC8BECC8357C101835681010317DB
:1042F00001018507958FC20722D0C187B74500000D
:1043000063D9E710998FBEC22285938725EF9385E5
:1043100025EF02DE82C03ED2EF4020326308050E58
:10432000585D5C554583058BA64663D1D702BEC652
:104330008347E105F2561646F99B230FF10419C78E
:1043400093E72700230FF10432DEB6C21646F2557A
:104350004A858549EF408032AAC4AACA0810EF40B6
:1043600080248357E1018356A101031721018507AA
:10437000958FC207C187B745000063D5E70A6393ED
:10438000090A998F03978400228502DE998FBEC2A5
:104390009387A5EE9385A5EE3ED282C0EF40E0293B
:1043A000814701C98329C5035C5593D9190193F944
:1043B0001900264763D2E702BEC68347E10572575C
:1043C0009646F99B230FF1046388090093E72700C1
:1043D000230FF10436DEBAC21646F2554A85EF4085
:1043E000E029AAC4AACA0810EF40E01B2285EFA06A
:1043F0002151BA402A449A440A49F659665AD65A73
:10440000465BB65B265C965C4961828001478147CA
:1044100021BF938525EF2285EF40A011814923120A
:10442000040481B79385A5EE2285EF408010231305
:1044300004046DBF0D4963122A1713065006814507
:104440002285EFC0F1632A89130670068145228513
:10445000EFC011639319050193D90901639D090008
:104460002285EFD0F15AEF70701933454503931947
:10447000050193D909010810EF406007FD57231E7D
:10448000F1048357C1010357810122D08507998F19
:1044900003170101C207C187374A000063D9E70C3F
:1044A00013060002930500022685EF70903B131659
:1044B0002500118D0316010193072AEF814533066C
:1044C000C5404E853ED2B2C202DE82C0EF40001B24
:1044D000AAC493052AEF2285EF402016814711C117
:1044E0005C55630C09068327C902BEC6832789036E
:1044F000BECC0810EF40200B05478357E1018356DF
:10450000A101031621018507958FC207C187374A8C
:10451000000063D1C7083DEF839784003306C04095
:1045200081451D8E4E859307AAEE3ED2B2C202DEB1
:1045300082C0EF40A014AAC49305AAEE2285EF40E2
:10454000C00F814711C15C55630C09028327C90262
:10455000BEC683278903BECC79B52647E3DBE7F8DF
:10456000BEC68347E105F99B230FF10459B79305B4
:104570002AEF2285EF30F07B014723120404B5BFF8
:104580002647E3D2E7E6BEC68347E105F99B230F42
:10459000F10491BD9305AAEE41BD8547E318FAE405
:1045A0008357E1018356A101031721018507958FE8
:1045B000C207C18763C5E700FD575CD405BD83977B
:1045C0008400E3DBE7FE83A7C18148508297E3754F
:1045D000A9FE0359C101835781011306E0020509B1
:1045E0009305E00226853309F940EF709027569530
:1045F0004209931A250033055541135909012A9997
:104600000355E1018357A1010397840005051D8D22
:104610004205418193170501B3063701C187B3E70E
:10462000D702231A210193960701C18663CCE60CB9
:104630003A951D8D420541854C08231BA10022851A
:10464000EFF03F9844502A892685EFA0A24E83A719
:1046500081802A8BCA85268582972AD08259485024
:10466000138A390063634B0B914A81448D4C485047
:10467000025783A781813A958297AA9483A70181E3
:10468000485093F4F40F0C10829763E89C00825713
:104690006365FB00FD1AE39C0AFC4C502285CE9515
:1046A0002EC6EFF0EFFE9147B24563F697061385ED
:1046B0001400EF50201808D4E30A05D2B24526862C
:1046C000EF40F06B0854AA942380040083478404CD
:1046D00093E707042304F4045C501307E0020D0978
:1046E000CE972380E7005C50CE97A380E7005C5014
:1046F000BE992381E9005C50D297238007002326CE
:104700002403EDB1330535412DB783A741810C104A
:104710007D198297A1B783478404268613058402F6
:1047200093F7F7FB2304F404EF40706575B78280BC
:10473000370503001D7113050565A6CA86CEA2CCF8
:10474000CAC8CEC6D2C4D6C2AE84EF50116F854758
:104750006311F5042685EF60E10D2A892685EF6057
:10476000E10C9307A0022A846318F900EFF0EFF838
:104770002285EFF01FA831A8CD476315F902EFF0AD
:104780001F838315850091472685B3C5F502EF6029
:104790008116F6406644D6444649B649264A964AAA
:1047A0002561828093079002E302F9FC9307C0021F
:1047B0006317F90AEFF0AFFFAA892285EFF02FFC0B
:1047C0002A8A2285EFF02FFD83478404AA8A13D911
:1047D000470093F707021379190099C31369290059
:1047E0002285EF90315B2285EFF00FF88967138700
:1047F000177D6318E50083562402FD1793F60640E3
:1048000089C62285EF901159AA874C505687D286C7
:104810004E864A880810EF70C0262685EF60010298
:1048200003570500835701029316070113960701EA
:104830004186C1866353D600BA872310F50003571B
:10484000250083572102931607011396070141861D
:10485000C1866353D600BA872311F5001DBFD54723
:10486000E319F9F22685EF50717C2A842685EF60E2
:104870006107AA840C082285EF90D15A83478404EB
:1048800013D9470093F707021379190099C31369E5
:1048900029002285EFF04FED89679387177D631913
:1048A000F5008357240293F7074099E31369490001
:1048B0000810EF2071598357440410108145231BC1
:1048C000F102835764042285A30E2103231CF10205
:1048D000EF9061488347C10381E78547230EF102CA
:1048E000545C3840C16736D23AD4FD17638CF60267
:1048F000630AF70213065005B70504002285EFC0CE
:1049000031182A86B70504002285EFD0414C2317C1
:10491000A10213060002B70504002285EFC051165C
:104920002318A102834784040947998B6394E70401
:104930008347C1038549F91793F7F70F63ECF90231
:10494000031721038316410302564C508967FD1754
:104950004A882808EF70E01283574101035701018C
:104960008507998F03178101C207C18763D4E700C8
:10497000230E3103834784040D4781499D8B638057
:10498000E70283576101035721018507998FC20709
:10499000C1871307F03F6354F70093090403904461
:1049A0000C082808EF307068E30505DE83478404AF
:1049B0009D8B85E32285EFB0812E3306A040420611
:1049C000418681450808EF3030638357A401231BDB
:1049D000F1008347840409475450998B6392E70E92
:1049E00003AA84003C089CC44E8710080C1026853E
:1049F000EF20114A23A444013C0803AA84009CC46C
:104A0000834784040D479D8B6399E70A03172103AD
:104A10008316410302564C508967FD174A88680087
:104A2000EF70200603574101835601018317C1002F
:104A30000507158F420741876351F7040359440462
:104A4000025513060002CA97930500021399070145
:104A5000EF7020618D473305F5025450835764048D
:104A6000135909014E8710080C10231CF1022A99D2
:104A70002685231B2103EF20B14183576101835613
:104A800021010317E1008507958FC207C18763D60F
:104A9000E7028357440454501008231BF102825745
:104AA0000C10268583D787003E97835764043E9772
:104AB000231CE1024E87EF20B13D23A44401D1B96C
:104AC0004E8710080C102685EF20913C35B7AA853B
:104AD0003705030041111305056506C622C4EF80A2
:104AE00011462A84EF80315B2285B2402244410185
:104AF0008280411122C44AC02A842E8926C206C659
:104B0000EF901160445063130900268963992403D0
:104B100083478404A18B95EF2685EFA0A20193051E
:104B200015002685EF40105411C948D02285224433
:104B3000B2409244024941016FF0AFEB01A091C82D
:104B400083478404A18B91E72685EF4090192322A7
:104B500004024A85EF90127E0505EF40B04D48D023
:104B600011E101A0CA85EF90D27B83478404DD9BCD
:104B70002304F40465BF397106CE22CC26CA32D490
:104B800036D63AD83EDA42DC46DE91E101A02A84EC
:104B9000AE84EF90F156485009C983478404A18B35
:104BA00089E7EF401014232204022C1026852EC61C
:104BB000EF60F05A8347840448D02285DD9B2304AC
:104BC000F404EFF00FE3F2406244D24421618280AA
:104BD00083478504011122CC06CEA18B2A8489EB60
:104BE000485119C52EC6EF40D00FB245232204020A
:104BF00081C9834784044CD093E787002304F404DD
:104C000022856244F24005616FF0AFDE411126C299
:104C1000AE84B7450000938525EF06C622C42A84DA
:104C2000EF303011B74500009385A5EE2285EF30B7
:104C300050109387E4FF93B73700139757008347CB
:104C400084042322040493F7F7FDD98F2304F4048A
:104C500005479D8B6399E7005854FD576305F7009E
:104C60002285EFF08FA9834584049D882285E199F0
:104C7000C58D2304B4042244B240924441016FF034
:104C80004FD7411106C622C4FD57DCD59CD9C16758
:104C9000FD17DCDDBCC183C785042E84228593F714
:104CA00007FA2384F50423A2050223A4050223AAFC
:104CB000050223AC050223A205048945EF80C14DFE
:104CC00022858145EFF09FF422852244B240B7054A
:104CD00003009385C56641016FF0BFE14CDD6F9025
:104CE00031422CC16F90D1414851828011E201A024
:104CF0001D71CEC683294502CAC866DA3289AE8CD8
:104D00004E868145A2CCA6CA86CED2C4D6C2DAC00F
:104D10005EDE62DC6AD86ED6AA84EFD04133838728
:104D200009002A84A9EB231109008947630FF502C2
:104D30008D476306F50285476314F50023100900CB
:104D4000F6406644D6444649B649264A964A064B3A
:104D5000F25B625CD25C425DB25D25618280268539
:104D6000EF9051032310A900E1BF2685EF90910237
:104D700033458502C5BF2C082685EF90B10A835ABA
:104D8000C101835781012685850AB38AFA40EFF075
:104D90000FA2AA8B2685EFF00FA02A8D2685EFF0B3
:104DA0000F9E83C78404C20A93DA0A4193DD470049
:104DB00093F707022A8C039B8B0093FD1D0099C378
:104DC00093ED2D002685EFF02F9A89679387177D45
:104DD0006319F50083D7240293F7074099E393ED15
:104DE0004D0083A78180E6854E858297AA888144FD
:104DF000014A3303AB013385490183070500C5E34D
:104E0000528863840802B38719010387F7FFA94614
:104E10006305D700B546631AD7008387070091E77B
:104E20006A9BDA94C204C184468AD2996E87E2866C
:104E30005E86B38548414E8542C4EF60903BAA8AA6
:104E4000224863089A01B3078501939A070193DA10
:104E50000A418947631EF4066E87E2865E86B305C3
:104E600048414E85EF60F0388357C10103578101F7
:104E7000334585028507998FC207C187B3C787026B
:104E800042054185C207C187898FD697939A07014A
:104E900093DA0A41231059012311990055B5EE8781
:104EA0000147D6866286DE8546C41AC6EF60C076A4
:104EB000A2483308AA00E3E608F5B387090183870F
:104EC0000700A1D33243428A9A94C204C18425B711
:104ED0008D47E311F4FC6E87E2865E86B305484198
:104EE0004E85EF6010310357C101835781010507DB
:104EF0001D8F420741873305A740B307550179B796
:104F000091E101A06FF0EF8B91E101A05971CECE3C
:104F1000AE892C1086D6A2D4CAD02A84D2CCD6CAC6
:104F2000DAC8DEC6E2C4E6C2EAC0A6D26EDEEF9000
:104F3000616F835CC102835781022285850CB38C2B
:104F4000FC40832A4402EFF08F862A8A2285EFF004
:104F50008F842A8C2285EFF08F8250502A898145D8
:104F60002285031D8A00EFD0810E83478404C20C82
:104F700093DC0C4193DB470093F707022A8B93FBEA
:104F80001B0099C393EB2B002285EFE0FFFD89679F
:104F90009387177D6319F5008357240293F7074021
:104FA00099E393EB4B000144814433088D013DA00C
:104FB000DE870147E6864A86D2856E8542C6EF6067
:104FC000A06503972900B307A401338CA40063DD17
:104FD000E7003248E284429442044184B38D9A004F
:104FE00083870D00F1F7268C89476314FB085E87E1
:104FF000CA865286B3059C406E85EF60901F0354AD
:10500000C102835781023345650305041D8C4204A8
:10501000418433446403098C42044184A30D01009C
:1050200026CE02D002D2014B63150C0C12568255CB
:105030005285EF70000303970900B3062B41AA873E
:1050400001456349D7003E9905095A993329E9007A
:1050500013451900B650265496540659F649664A27
:10506000D64A464BB64B264C964C064DF25D6561D2
:1050700082808D470144E313FBFA5E87CA8652861D
:10508000B3059C406E85EF60D0160354C102835770
:10509000810205041D8C41B7F2471305B101D69773
:1050A00083850700EF60605201CDF247E360FCF8B2
:1050B000740850100C105685EF60700FE39E0BFCC7
:1050C000125682555285EF60D07922954205418172
:1050D0000397090093170501C1876355F70026CE92
:1050E000228BA9B74A95228B13140501F2444184FF
:1050F0006DBF7D1C93FB1B004DBF485D8280284126
:10510000828011E201A083478504011122CC06CEE2
:1051100026CA4AC84EC652C4A18B2A84B9EF328926
:10512000AE84EF90E17D032A44025285EF909220F5
:10513000AA894A85EF901220B385A900850552857A
:10514000EF40407248D011E101A0C167FD1763969E
:10515000F40083A7C1818297AA844850A6854A8615
:10516000EF60807122856244F240D2444249B249E4
:10517000224A814505616FF0DF97F2406244D244D4
:105180004249B249224A0561828083C7A5022E8521
:1051900023940502F99B23A205022385F502894584
:1051A0006F70917F3705030039711305456726DA63
:1051B00006DE22DC4AD84ED652D456D2AE84EF5008
:1051C000C1478547631EF5022685EF50A1662A89EF
:1051D0002685EF50A165CD472A84631CF90213068A
:1051E00090048145EFC0C109131405012685EF50D5
:1051F000E16483170500418463D487002310850090
:10520000F2506254D2544259B259225A925A2161F0
:1052100082809307C0026311F90883578502EDD39A
:105220005C51F9DF2685EF50616103568402AA893B
:105230008147014981441397070141836361C70294
:105240001306900481452285EFC081034205418108
:10525000AA944A95239099002391A90055B75450D8
:105260001397270036978356070093950601C1854B
:1052700063D39500A6860357270093940601C18443
:1052800093160701C18663D326014A8713190701C4
:1052900013590941850745B7D547E313F9F6268524
:1052A000EF50416483578402AA8AB9DB5C50A9DBC2
:1052B0006C002285EF90811C8359C1002285EFA0EC
:1052C000B1168354E100B389A9402285EFA071197A
:1052D000898C2285EF90C12AC2042A8AC18048089D
:1052E000EF203116269AC209500881452285420ACC
:1052F00093D90901EF80B1410149135A0A0183573B
:105300008402FD17E35EF9EE5C5013172900338623
:10531000E700835606001107BA97CE962312D100F4
:1053200003D707008346A4024E972314E100858A21
:10533000035726008DEA26972313E10083D7270021
:10534000A697340050004C0856852315F100EF2035
:10535000B1118347D10105094209ED9BA30EF1006C
:105360001359090169BF3307EA402313E10083D7CA
:105370002700B307FA40F1B7AA85370503004111AA
:105380001305456706C622C4EF80613B2A84EF807F
:1053900081502285B240224441018280411122C4C1
:1053A00006C64CD12314C5022A84EF9041342285CD
:1053B0002244B24041016F90A154411106C6EFB0A2
:1053C0007F9E8547630BF500094789476303E50026
:1053D0008147B2403E85410182808547DDBF83C75A
:1053E0004507411106C6F19B22C42E84238AF50687
:1053F00023A80506228593050030EF70F159C145B9
:105400002285EF7071590145EF60501FF5478545C2
:1054100063DCA7000145EF60701E9305A5005145B0
:10542000B3C5A502C205C18522852244B24041010F
:105430006F90D1190111935716407D1622CC26CAC0
:105440002E8442069395070106CE4AC84EC652C422
:1054500056C25AC0AA84C1814182E9C603570400DA
:10546000831765010D8F42072311F4008317A501EF
:1054700041832310E40032972312E4002313F40045
:105480004946B70503002685EFB0915F2A8A4D464D
:10549000B70503002685EFB0B15E2A8B4146B705FC
:1054A00003002685EFB0D15DAA894546B705030004
:1054B0002685EFB0F15CAA8A2946B7050300268548
:1054C000EFB0115C2A892D462685B7050300EFB0A1
:1054D000315B0357040093170901C1833E9A3307D8
:1054E00047412310E40003574400DA974205BA9776
:1054F0002312F400835724004181AA99B3873741CE
:105500002311F400835764005695F2403E9523130F
:10551000A4006244D2444249B249224A924A024B10
:1055200005618280835724008D8FC207C1832311B8
:10553000F400B2972313F400831745012310F400FD
:10554000831785012312F40025BF5171D2CD370A8C
:10555000030013050A69CECF86D7A2D5A6D3CAD138
:10556000D6CBDAC9DEC7E2C5E6C3AE89EF50E10C9F
:1055700085476318F50AAA8A4E85EF50A12B2A8920
:105580004E85EF50A12A2A84EFF03FE3C547AA8455
:105590006316F90A4E85EF50612A1C442A89814915
:1055A00099C383994701835784064E86CE85231C71
:1055B000F1068357A406A818231DF1068357C406D5
:1055C000231EF1068357E406231FF106EF30A01FC8
:1055D000832509000146A818EF30E0372302A9000F
:1055E00029E18947639FF402835704064E86CE85DE
:1055F000231CF10683572406A818231DF1068357A0
:105600004406231EF10683576406231FF106EF307C
:10561000801B832509000146A818EF30C033230200
:10562000A900BE502E549E540E59FE496E4ADE4AC1
:105630004E4BBE4B2E4C9E4C6D61828063185915AB
:105640002285EF90E12B8347440793E71700230A55
:10565000F40663659900930744025DA88947E392C5
:10566000F4FCEF509108AC18EF50F1162285EF8052
:10567000F16F2A8A2285EF80B170AA891306B006DD
:1056800081452285EFB0D13F634C3A091375F50F80
:1056900083168107630425078317C406E3CDD7FA71
:1056A0008317040663C4F60683170406031744062B
:1056B0008945031684061D8F3347B7023E97158F21
:1056C0009357F7413D8F1D8F8317C40642074187CB
:1056D000918FB3C7B702B297958F93D6F741B58F25
:1056E000958FC207C1878346440763D5E7029307B6
:1056F00044023CD8F59A230AD40625B783178406BA
:10570000E3CBF6F483174406E3D0D7FA93070403F8
:105710003CD801BF930704033CD893E62600E1BFC1
:105720008316A1070316A406E3C7C6F2031764068F
:10573000E34ED7FC831524060315E406B307B740F0
:10574000B3C79702118D33459502AE97958F13D746
:10575000F741B98F998FC207C1873295158D1357BD
:10576000F541398D198D4205418503474407635939
:10577000F500930744023CD8759B230AE40655B50F
:10578000930704033CD813672700C5BF89476315F7
:10579000F9123C58E38707E8EF502175AA84EF50CF
:1057A00021752A8BE31F55E72685AC18EF50B1020F
:1057B00048541C543309F5402285EF80315BAA849C
:1057C0002285EF80F15B63C5A40A494681452285A5
:1057D000EFB0112B4D468145AA892285EFB0512AA1
:1057E0002A8A2285EF809158B3844901B3049540F9
:1057F0001306B00681452285EFB09128C2041375C7
:10580000F50FC18483178107631B650503158401A8
:10581000420A135A0A41330A4541B307FA40330595
:10582000F902334595021C54130704033E953C5876
:105830006391E7081854545063D3A6003685635328
:10584000E5003A859843E30EE5DC88C32285EF90B6
:10585000210B0146F1452285EF409179D9B303151B
:105860004401C20993D90941AA99B387374145BF79
:10587000414681452285EFB0B120AA894546814540
:105880002285EFB0F11FAA842285EF80714F831724
:10589000A401139704014187BA970317A107CE9477
:1058A000058D998FB38727034205418533C5A7022C
:1058B0009DBF5454185849B7A1476305F9008D4757
:1058C0006314F90683474407228523280406F99BBD
:1058D000230AF406EF90C1022285EF705119AA84C1
:1058E000EF50214E2A89EF504160EF50616091479F
:1058F000E319F5D2E30709D22285EFF01FAC8947FF
:10590000631FF5008347440713F7270011E793E768
:105910002700230AF40631B3F59B230AF4068145D8
:105920002685EF504138F5B9B947631EF900EF50AD
:10593000C15BEF50E15B79157599E31405CE8347A0
:105940004407F59BF9B7930790026316F900228587
:10595000EF803101F9B1CD476310F9124946B7051F
:1059600003002285EFB0D111931B05014D46B70509
:1059700003002285EFB0D110131C05014146B70585
:1059800003002285EFB0D10F131B05014546B70573
:1059900003002285EFB0D10E931A05013946B705F1
:1059A00003002285EFB0D10D131A05012946B70572
:1059B00003002285EFB0D10C2D46B70503009314E8
:1059C00005012285EFB0D10B13190501C184228591
:1059D000EF80D139860413590941B30C9500228513
:1059E000EF80113A06094A9593DB0B41135C0C4199
:1059F000135B0B4193DA0A41135A0A4163D6AC0692
:105A00002285EF80B136AA948584C204B7050300CD
:105A10002285EF80C15E2A844E85EF403162C184C9
:105A2000E28763537C01DE87139707014187635345
:105A30006701DA8713970701418763535701D687B8
:105A4000B3844403890783560500A2971396060181
:105A50004186A184A6973E87C207C18763D3C7004A
:105A600036872310E50075BE2285EF8071314A9597
:105A700005859314050159BFB5476319F9064E858D
:105A8000EF40D15B83070500454793F6D7FF639945
:105A9000E602834744072285898B91EBEFB08FADF7
:105AA0000546930515002285EFB00F975DB3EFB063
:105AB0006FAD0546930515002285EFB0CFA051BB11
:105AC000B91793F7D70FE39E07B48347440722859E
:105AD000898B99E7EFB00FAA05469305F5FFE1B76B
